S01D0000626172656D6574616C5F656B5F7261386D315F65702E73726563EF
S31502000000700D0022911000027D0F00028D10000279
S315020000108D1000028D1000028D1000028D1000025C
S315020000200000000000000000000000008D10000229
S315020000308D100002000000008D1000028D100002DB
S31502000040490900020348044B834202D0034B03B121
S31502000050184770470800002208000022000000002E
S31502000060064B0749C91A891048BF0131491003D006
S31502000070044B0BB101481847704700BF0800002225
S31502000080080000220000000010B5064C237843B990
S31502000090FFF7D8FF044B13B10448AFF300800123E6
S315020000A0237010BD38000022000000003019000243
S315020000B008B5054B1BB105490548AFF30080BDE8FD
S315020000C00840FFF7CDBF00BF000000003C00002241
S315020000D0301900022DE9F041D0E902850446A8EB69
S315020000E00507406897422844154408D80E463A4602
S315020000F0A5EB080501F0B4F82A466068F11901F08B
S31502000100AFF8BFF35F8FE560BDE8F0812DE9F843F4
S315020001104FF00009064688461746D0E9022433699D
S31502000120151B9C4203F1FF3125BF03F1FF339B18D8
S315020001300B1B1B1BBD4228BF3D469D4228BF1D46C9
S31502000140706841462A46204401F08AF8B2682C4477
S31502000150A24208BF0024A944A8447F1BBFF35F8FB5
S31502000160F460002FDBD14846BDE8F883F8B5154C9C
S31502000170A8220021204601F06BF84FF48066002386
S31502000180032010221049114F114D20616061A161B7
S31502000190E7612662A3626362E36221666566A2661E
S315020001A02367E3666367BFF35F8F0A4B42F001E0A2
S315020001B01846C21A13F9011DA1540FF007C0BFF366
S315020001C05F8FF8BD68040022E41200026800002274
S315020001D058000022E816000270B51D4D441C00EBC3
S315020001E0400005EBC00304EB440405EBC400DC6AE3
S315020001F08C46012C164612D0022C0CD0FCB99A6AF7
S31502000200596A8A429CBF1B6AD218013A511A8E4217
S3150200021018D9204670BDBDE87040FFF777BF9A6ACD
S315020002205C6AA2429CBF1B6AD218013A141BB442F2
S3150200023028BF34462246FFF74DFF204670BD0024F4
S31502000240204670BD32466146FFF744FF3446E0E77A
S3150200025068040022F8B50B4B04461B780D46532B57
S31502000260164601D0FFF782FFEFF311874FF0200108
S3150200027081F31188324629462046FFF7ADFF87F300
S315020002801188F8BD68040022D0E9013210B504468F
S31502000290501C984207D8236899540246E16863685D
S315020002A00131C4E902019A4200D010BD21682069D9
S315020002B0FFF7D0FFA368984215BF4FF0FF33002324
S315020002C0E360A36010BD00BF2DE9F84F91428A4654
S315020002D0DDE90A84154683461E466AD30B46012784
S315020002E0B3FBF5F39D4207F10107F9D9B74238BFCF
S315020002F0374614F0010902D1B8F1000F40D1DBF8FC
S315020003000C30002B2CDB0124002E14BF334623466F
S3150200031001E005FB04F4013BFBD1BAFBF4F39D4279
S3150200032005D805FB04F4BAFBF4F39D42F9D9224E33
S3150200033006E0AC42B4FBF5F30CD31C46BAFBF3F36E
S31502000340F156584604FB13AAFFF79EFFDBF80C3062
S31502000350002BEEDAB9F1000F02D0B8F1000F09D185
S31502000360BDE8F88F20215846FFF78EFFDBF80C30E8
S31502000370002BF5DBB84508F1FF38F3D8BDE8F88F56
S31502000380A30711D420240CE021465846FFF77CFF30
S31502000390DBF80C3008F1FF38002BE1DBB8F1000F77
S315020003A0AFD0B845F0D8AAE7002E0CBF30242024DF
S315020003B0F7E701279AE700BFF01600022DE9F04F92
S315020003C0002340259BB00DF1280980460C461746AE
S315020003D0CDE90553CDE90730CDF8109006E004A823
S315020003E0FFF752FF079B002BC0F2AD8014F9011BE9
S315020003F0002900F0A0802529F1D10026234613F911
S31502000400011BA1F123020D2A08D8DFE802F07F07BB
S315020004100707070707077B0783070777A1F130025C
S31502000420D2B2092A4FF0000501D90EE0013305EBDD
S31502000430850501EB450593F900101C46A1F1300232
S31502000440D2B2092AA5F13005F0D92E297FD0002291
S31502000450924694F9001021F00403682B04F101047A
S315020004605CD02529BBD05839CBB2202BBAD820294B
S31502000470B8D801A353F821F09D050002E503000256
S31502000480E5030002E5030002E5030002E5030002BC
S31502000490E5030002E5030002E5030002E5030002AC
S315020004A0E5030002B905000241060002E503000267
S315020004B0E5030002E5030002E5030002E50300028C
S315020004C0E5030002E5030002E5030002E50300027C
S315020004D0E5030002E503000223060002E50300022B
S315020004E0E5030002E7050002E5030002CD0500026E
S315020004F0E5030002E50300029D0500021C4646F0E4
S3150200050002067BE71C4646F0040677E71C4646F0E1
S31502000510080673E71C4646F001066FE714F9011B4D
S3150200052021F00403682B9CD114F9011B21F004036A
S31502000530682B96D1F2E7079B002B04DD069C002C64
S3150200054040F0B280234418461BB0BDE8F08F94F900
S3150200055001102A2909D13B684FF0010A1A1D3A6097
S3150200056094F902101A68023475E7A1F13003DBB27E
S31502000570092B4FF0000204F1010400F2E18002EBC4
S31502000580820201EB420214F9011F303AA1F1300353
S31502000590DBB2092BF3D94FF0010A5CE713461022AE
S315020005A0386801680430CDE9005638600DEB020068
S315020005B0FFF78AFE079B16E73B6804A81A1D93F904
S315020005C000103A60FFF760FE079B0CE73868134697
S315020005D001680430CDE900560A22386004A8FFF704
S315020005E073FE079BFFE63B68191D39601D68002DE7
S315020005F000F08D800132AE1815F9011B00293FF477
S31502000600F1AEBAF1000F02D0B5423FF4EBAE04A848
S31502000610FFF73AFE079B002BEEDA18461BB0BDE841
S31502000620F08F3A680823116804323A6000201022DB
S31502000630CDE900300DEB0200FFF746FE079BD2E63E
S315020006403B684FF0010AD3F800B004333B608BEAF3
S31502000650EB73A3EBEB73092B09DD4A481946A0FBA2
S3150200066003C363290AF1010A4FEAD303F6DC924572
S3150200067038BF92460DBB079900250B460029FFF6A7
S3150200068062AFBBF1000F46DB730752D406F00303D9
S31502000690022B57D0134659460A22CDE9005604A822
S315020006A0FFF712FE079B9EE6224649464046039303
S315020006B0FFF7D0FD039B234445E7BBF1000F06F08D
S315020006C002031BDB710719D4002B53D09AB1F3072F
S315020006D00FD510E0202104A80392FFF7D5FD079954
S315020006E0039A00290B4605F1FF35FFF62CAF002DC4
S315020006F0C4D0AA45EED307990B46BFE7013D0BB11D
S31502000700002AF8D0F107F6D4002DF2D1B3E74FF064
S31502000710000A1D4D6EE72D2104A80392FFF7B4FDD2
S31502000720039ACBF1000B079900290B46FFF60BAF94
S31502000730ACE72B2104A80392FFF7A6FD039AF2E782
S31502000740924688E6002AA5D1002DA3D0554517D991
S31502000750302104A80392FFF797FD0799013D00296E
S315020007600B46FFF6F0AE039A002DEFD10029FFF6F5
S31502000770EAAE8FE7F007BCD5079B002B8ADAE2E6E2
S315020007800B46F3E7CDCCCCCCF01200020EB400B58A
S3150200079082B003AB53F8041B01AA0193FFF70EFEC6
S315020007A002B05DF804EB03B0704700BF4FF0FF32B2
S315020007B0012170B54AF2A5555B4C82B00192A2683E
S315020007C05A4B22F40052A2601A78594822F00302C8
S315020007D01A701A7861F306121A701A7822F0080251
S315020007E01A701A7A0A431A721D61D0F8002322F48B
S315020007F08032C0F80023D0F80023BFF35F8F4D4A42
S31502000800C2F8801111604BF2B5510A22D9604A4CE6
S31502000810019201E0019B2BB1019B013B01932378DD
S31502000820002BF7D0414B1B79DB0757D42378002BDB
S3150200083054D14AF2A556414D3C4B696800220988BB
S315020008403F48DE6000F066F96B68002259883C4832
S3150200085000F060F96B6800229988394800F05AF96D
S315020008606B6801221988364800F054F94FF0FF33BD
S31502000870019301E0019B2BB1019B013B019323787C
S31502000880002BF7D06A68019B11881BB9237803F005
S31502000890FF0653B3254B1A7912F0010625D000261E
S315020008A01A7A274842F001021A723246267000F07E
S315020008B031F96B6832465988214800F02BF96B688A
S315020008C0324699881E4800F025F901226B681C48B9
S315020008D0598802B0BDE8704000F01CB91E221949C1
S315020008E00020FFF753FF00BEA3E73246144800F08C
S315020008F011F96B6832465988114800F00BF96B689A
S31502000900324699880E4800F005F96B6801229988EB
S315020009100B4800F0FFF81E2230460A49FFF736FF61
S3150200092000BE02B070BD00BF003020400010314052
S3150200093000C0004000E100E010050022201900027C
S3150200094014050022F8120002EFF30383012008497E
S31502000950103B084A5BB2087003F5C65352F82310DF
S3150200096021F4803142F8231052F82330704700BF39
S315020009701005002200600040002400B585B003A8DF
S31502000980039400F0A9FA9DF80D609DF80E50144AE2
S315020009909DF80F3013492046CDE90056FFF7F6FEC3
S315020009A011492046FFF7F2FE10492046FFF7EEFEF8
S315020009B00F492046FFF7EAFE0E492046FFF7E6FEFC
S315020009C00D492046FFF7E2FE0C492046FFF7DEFE00
S315020009D0FFF7ECFE20460A49FFF7D8FE30BFFDE7D7
S315020009E0181300021C130002B414000204150002BC
S315020009F054150002AC150002001600025C16000235
S31502000A00B8160002022800D070470249024800F0D8
S31502000A10FFB800BF001700021405002208B5FFF751
S31502000A20ABFF002008BD00BF2DE9F84F0388DBB1FC
S31502000A304FF0000A80464FF00109DFF8D4B00024D7
S31502000A40314D4FEACA07D8F8043035F8022BD919C6
S31502000A50898891420AD00134032CF4D1B8F80030C7
S31502000A600AF1010A5345EAD8BDE8F88FDB5909FABB
S31502000A7004F603F0B853B3F1807F244BF6B293F831
S31502000A804C2C12D0324230D104F120021BF8123023
S31502000A90DB09E0D01BF81230012123F08003C820C5
S31502000AA00BF8123000F02AFAD5E7324210D004F1E0
S31502000AB020021BF81230DB09CDD11BF812300121BE
S31502000AC043F08003C8200BF8123000F017FAC2E791
S31502000AD0012000F0B1FA0D4B012093F84C2C324361
S31502000AE083F84C2C00F078FAE1E7012000F0A4FA32
S31502000AF0064B012093F84C2C22EA060283F84C2C72
S31502000B0000F06AFAC0E700BF1019000200E00140D7
S31502000B1000202040E8B1104B0068984215D1012A06
S31502000B2015D801235FFA81FC03FA0CF3002A9AB264
S31502000B304FEA034308BF1A46090A490101F18041F7
S31502000B4001F5800100208A60704707207047032064
S31502000B5070470120704700BF54524F50F8B5044603
S31502000B60FFF762FFEFF31082012383F31088254E0D
S31502000B7033681BB9402024490B7508753368013365
S31502000B80336082F31088218849B3C9000839C9083D
S31502000B9060681E4D013107E01B011344013945F817
S31502000BA0234000F108001AD004688288E7034FEA5E
S31502000BB01223D2B2F0D502EB031C55F82CE01B012E
S31502000BC024F480372EF4803E1344013945F82CE094
S31502000BD000F1080045F82C7045F82340E4D1EFF304
S31502000BE01082012383F31088336813B13368013B03
S31502000BF0336033681BB9802003490B75087582F38D
S31502000C001088F8BD60050022000D404000084040F3
S31502000C1098B191B14A6808B503464AB1094A1868BB
S31502000C2090420CD008461A60FFF798FF002008BDD4
S31502000C300A88002AF2D0012008BD012070470E2042
S31502000C4008BD00BF54524F501E4A92F8263092F801
S31502000C502420DBB202F00F02A2F1080103292BD8ED
S31502000C60DFE801F020160C021749184A51F8233022
S31502000C70A2FB03231B09164A136070471249134A43
S31502000C8051F82330A2FB0323114ADB081360704795
S31502000C900D490E4A51F82330A2FB03230C4A9B0846
S31502000CA0136070470849094A51F82330A2FB03230F
S31502000CB0074A5B0813607047034951F82330D34053
S31502000CC0D9E700BF00E0014008000022ABAAAAAAA9
S31502000CD06C050022704700BFF8B54AF203500123A3
S31502000CE04B494C4AA1F8FA03938093889BB2002B96
S31502000CF0FBD101244FF400409FED416B9FED427BF7
S31502000D00454B4649C3E907115961148083ED007FBB
S31502000D101861FFF799FF092206213D4B83F8501A05
S31502000D2083F8A22093F8002C1AB993F8013C98078D
S31502000D3060D0374C94F8003C002B50D00022344B44
S31502000D4083F8012C83F8002C0023314A82F83230D2
S31502000D5092F83C301907FBD545F6017040F21111A5
S31502000D6000232B4C1085A2F84C1082F82A3094F8F6
S31502000D703C309B06FBD5042201250526254B284F30
S31502000D801A77276284F8245084F82660FFF75CFFFE
S31502000D902946962000F0B2F8002384F82430276210
S31502000DA0FFF752FF2946962000F0A8F884F826603D
S31502000DB0FFF74AFF4AF201521A4B1A80BFF35F8FBE
S31502000DC01D72BFF35F8F4FF425421A8084F83050AC
S31502000DD084F8525084F85350A4F8FA23F8BD01213E
S31502000DE0C82084F8001C00F089F894F8003C012B16
S31502000DF0FBD1A3E74FF47A70FFF76CFFA4E700BFBD
S31502000E00006CDC0200127A0000800000002D310125
S31502000E1000E0014000C101400800002200389C1C8D
S31502000E20322312310020004038B50025284C01211A
S31502000E30C82084F8285000F061F884F8245094F809
S31502000E402430002BFBD194F82430214943F00203CD
S31502000E5084F8243091F82430C3F340009B07F9D478
S31502000E601B4A81F8220092F8223003F0FF00002B81
S31502000E70F9D192F84030164960F3C71382F8403030
S31502000E8091F84030DB09FBD191F84200104A63F336
S31502000E90C71081F8420092F84230DB09FBD192F882
S31502000EA044000B4963F3C71082F8440091F84430BA
S31502000EB0C3F3C014DB09F9D1012000F0BDF8054BDC
S31502000EC0012083F84C4CBDE8384000F085B800BFDD
S31502000ED00020204000E00140034618B1024A0020EB
S31502000EE01A6070470120704700000905FFFFFFFFE7
S31502000EF0A0F101000028FBD1704700BF1C4B1D4A20
S31502000F001B6800FB01F193420FD302F1854202F501
S31502000F10071202F68342A2FB03239B0CA3FB0131B9
S31502000F204FF0FF30E1B1FFF7E3BF4FF47A7210B42E
S31502000F30114C4FF0FF30B4FBF3F3A1FB02C434B9FA
S31502000F40BCFBF3F080B15DF8044BFFF7D1BFB1FBF8
S31502000F50F3F1A1FB0212002AF5D1084620B1F2E70D
S31502000F601846002BDFD170475DF8044B704700BF6F
S31502000F706C05002200127A0000CA9A3B70B5002462
S31502000F800D4B0E4EB3F80021B3F82051ADB2154009
S31502000F9025FA04F3DB0704D556F82430E0B203B190
S31502000FA098470134102CF3D1034AA2F81051B2F833
S31502000FB020311D42FBD170BD00C000402005002239
S31502000FC0034B1A8812B1034BC3F80023704700BFC4
S31502000FD00C19000200C00040EFF31081012383F3D5
S31502000FE01088124B33F8102092B22AB133F810202F
S31502000FF0013A92B223F8102033F810309BB293B91B
S315020010000B4A10B4B2F8FA330A4C9BB234F8100009
S3150200101043F4254323EA0003A2F8FA3381F3108846
S315020010205DF8044B704781F310887047640500220F
S3150200103000E001401819000230B4EFF310810123D9
S3150200104083F310880E4A32F810309BB26BB90D4CFE
S315020010500D4DB4F8FA3335F810C09BB243EA0C03CF
S3150200106043F425439BB2A4F8FA3332F81030013325
S315020010709BB222F8103081F3108830BC704700BF53
S315020010806405002200E001401819000200BE704704
S3150200109008B500F005F8FFF7C1FCFEE7FFFFFFFF0A
S315020010A070B5554B554D6B61BFF34F8FBFF36F8FC5
S315020010B0534A136843F004031360BFF34F8FBFF321
S315020010C06F8F4FF0E022936843F480339360BFF34F
S315020010D04F8FBFF36F8F4FF470034A4CC5F88830B9
S315020010E00020AC60FFF78EFCFFF7F6FD0120FFF74C
S315020010F089FC2368A3F5806383F30A884248434A3E
S315020011000021121A00F0A4F84148424A4249121A32
S3150200111000F0A6F84149424A4248521AD20842F021
S3150200112009C800BFAFF30080F1E80223E0E802231A
S315020011300FF007C03C493D4A3D48521AD20842F0D8
S3150200114009C800BFAFF30080F1E80223E0E80223FA
S315020011500FF007C0374B384A0020D21A0021D208B6
S3150200116042F007C0AFF30080E3E802010FF005C0CA
S31502001170BFF34F8FBFF36F8F0024C5F85042BFF302
S315020011804F8FBFF36F8F2D4B2D4D5B1BA34206DD99
S315020011909E1055F8043B01349847A642F9DCFFF746
S315020011A053FDFFF741FE0320FFF746FF00234FF0F2
S315020011B00C0E1C464EF001E0224903F10C0221F806
S315020011C0224001330FF007C80320FFF705FF032073
S315020011D0FFF732FF1C4B03205C609C60DC601C61E5
S315020011E0FFF7FAFE0220FFF70DFCFFF7E9FEBDE866
S315020011F07040002000F02AB801020E0000ED00E067
S3150200120000E001E000000002380000227005002222
S3150200121000000022080000225C1900026019000288
S315020012206019000200000000701900027019000225
S315020012300000002000000020000000200400002220
S3150200124000000022000D404000402040704700BFD1
S3150200125002440346934200D1704703F8011BF9E7A3
S315020012600A44431E914200D1704710B511F8014B52
S31502001270914203F8014FF9D110BDFFFF4275696C27
S315020012807420776974682052656E657361732041B4
S315020012906476616E63656420466C657869626C6526
S315020012A020536F667477617265205061636B616764
S315020012B0652076657273696F6E20352E392E300081
S315020012C0352E392E3000000000000905F8B500BFA2
S315020012D0F8BC08BC9E467047F8B500BFF8BC08BC0F
S315020012E09E4670475465726D696E616C000000001F
S315020012F0284E554C4C2900000D0A52657475726EC3
S315020013006564204572726F7220436F64653A2030BD
S3150200131078257820200D0A00312E30000D0A2A2A5F
S315020013202A2A2A2A2A2A2A2A2A2A2A2A2A2A2A2A15
S315020013302A2A2A2A2A2A2A2A2A2A2A2A2A2A2A2A05
S315020013402A2A2A2A2A2A2A2A2A2A2A2A2A2A2A2AF5
S315020013502A2A2A2A2A2A2A2A2A2A2A2A2A2A2A2AE5
S315020013600D0A2A20202052656E657361732046534A
S3150200137050204578616D706C652050726F6A6563A6
S315020013807420666F7220426172656D6574616C20AD
S315020013906F7065726174696F6E2020202020202094
S315020013A02020202A0D0A2A2020204578616D706CA3
S315020013B0652050726F6A6563742056657273696F31
S315020013C06E2025732020202020202020202020206F
S315020013D02020202020202020202020202020202005
S315020013E02020202020202A0D0A2A202020466C6553
S315020013F07820536F667477617265205061636B2043
S3150200140056657273696F6E202025642E25642E251B
S315020014106420202020202020202020202020202080
S31502001420202020202020202020202020202A0D0AD3
S315020014302A2A2A2A2A2A2A2A2A2A2A2A2A2A2A2A04
S315020014402A2A2A2A2A2A2A2A2A2A2A2A2A2A2A2AF4
S315020014502A2A2A2A2A2A2A2A2A2A2A2A2A2A2A2AE4
S315020014602A2A2A2A2A2A2A2A2A2A2A2A2A2A2A2AD4
S315020014702A2A0D0A526566657220746F20726561AA
S31502001480646D652E7478742066696C6520666F7269
S31502001490206D6F72652064657461696C73206F6E6E
S315020014A0204578616D706C652050726F6A65637451
S315020014B0200D0A000D0A546869732070726F6A65FE
S315020014C063742064656D6F6E7374726174657320E4
S315020014D07468652064697265637420616363657309
S315020014E07320616E6420636F6E66696775726174DC
S315020014F0696F6E206F6620444F4320534652732E07
S31502001500000000000D0A54686520534652732026D7
S3150200151020696E74657272757074732061726520CB
S31502001520636F6E6669677572656420646972656366
S31502001530746C7920746F20706572666F726D2061AB
S3150200154020636F6D70617269736F6E206D61746373
S31502001550682E00000D0A5468652049535220666FB2
S31502001560722074686520444F4320697320636F6E4E
S3150200157066696775726564207468726F756768203C
S3150200158074686520496E746572727570747320741E
S315020015906162206F66207468652046535020436F4F
S315020015A06E666967757261746F722E000D0A5265F6
S315020015B064204C4544206973207475726E656420FC
S315020015C04F4E2069662074686572652069732061D2
S315020015D06E206578706563746564206572726F72D9
S315020015E020656E636F756E746572656420647572CC
S315020015F0696E67206F7065726174696F6E2E000086
S315020016000D0A426C7565204C454420697320747539
S31502001610726E6564204F4E207768696C6520707221
S315020016206F6772616D20636F6E74726F6C20776183
S3150200163069747320666F72207468652055736572CB
S3150200164020446566696E65642049535220746F2092
S31502001650657865637574652E000000000D0A477291
S3150200166065656E204C4544206973207475726E65FB
S3150200167064204F4E20746F20696E646963617465DD
S3150200168020746865207375636365737366756C2071
S31502001690636F6E636C7573696F6E206F662061701F
S315020016A0706C69636174696F6E20657865637574C1
S315020016B0696F6E2E000000000D0A5265616368654F
S315020016C064204170706C69636174696F6E20456E47
S315020016D0642E0D0A00FFFFFF0000000000005454B4
S315020016E0522052454747455300FFFFFFFFFFFFFFCA
S315020016F03031323334353637383941424344454640
S31502001700400000000C17000200000000000000006C
S3150200171000000000008000000200000000800000BF
S3150200172003000000008000000400000000800000AA
S3150200173005000000008000000700000000400000D5
S3150200174008000000004000000900000000800000C0
S315020017500B000000008000000E0000000080000068
S315020017600F0000000000011C000100000000011C27
S31502001770010100000000011C020100000000011C22
S31502001780030100000000011C040100000000011C0E
S31502001790050100000000011C060100000400000013
S315020017A007010000000001170C01000000000117EC
S315020017B00E01000000000100080200000000010006
S315020017C009020000000001000A02000000000100F8
S315020017D00B020000000001170003000000000117C1
S315020017E001030000000001170203000000000117B8
S315020017F003030000000001170403000000000117A4
S31502001800050300000000011706030000000001178F
S31502001810070300000000011708030000000001137F
S31502001820070400000000011408040000000001146F
S3150200183009040000000401060A040000000401066F
S315020018400B040000000001060C040000000401065F
S315020018500D040000040000000E0400000000011345
S315020018600005000000000113010500000004010745
S315020018700B050000000401070C050000040000002F
S31502001880000600000000011C000800000000011C08
S31502001890010800000000011C020800000000011CF3
S315020018A0030800000000011C040800000000011CDF
S315020018B008080000040000000908000000000113E7
S315020018C00E080000000001130F08000000000104CA
S315020018D0020A000000000104030A000000000104DD
S315020018E0040A000000000104050A000000000000CE
S315020018F0060A0000000C01050E0A0000000C010594
S315020019000F0A0000000C0114010B0000BA01FFFFD0
S31502001910020403040404FFFF010002000800100091
S31502001920030000002819000200060E040701FFFF4B
S315020019301000000000000000017A5200027C0E0135
S315020019401B0C0D0010000000180000000000000033
S3110200195010000000000000000000000073
S30D0200195CB1000002890000023D
S3150300A100FFFFFFFFFFFFFFFFFFFFFFFFFFFFFFFF56
S3090300A110FFFFFFFF46
S3090300A134FFFFFFFF22
S3150300A200FFFFFFFFFFFFFFFFFFFFFFFFFFFFFFFF55
S3150300A210FFFFFFFFFFFFFFFFFFFFFFFFFFFFFFFF45
S3150300A220FFFFFFFFFFFFFFFFFFFFFFFFFFFFFFFF35
S3150300A230FFFFFFFFFFFFFFFFFFFFFFFFFFFFFFFF25
S3150300A240FFFFFFFFFFFFFFFFFFFFFFFFFFFFFFFF15
S3150300A250FFFFFFFFFFFFFFFFFFFFFFFFFFFFFFFF05
S3150300A260FFFFFFFFFFFFFFFFFFFFFFFFFFFFFFFFF5
S3150300A270FFFFFFFFFFFFFFFFFFFFFFFFFFFFFFFFE5
S3150300A28000000000FFFFFFFFFFFFFFFFFFFFFFFFD1
S3150300A290FFFFFFFFFFFFFFFFFFFFFFFFFFFFFFFFC5
S3150300A2A0FFFFFFFFFFFFFFFFFFFFFFFFFFFFFFFFB5
S3150300A2B0FFFFFFFFFFFFFFFFFFFFFFFFFFFFFFFFA5
S3150300A2C0FFFFFFFFFFFFFFFFFFFFFFFFFFFFFFFF95
S7050200109157
